S015000046656E63696E675465737465722E73726563DE
S11300000C9435000C9452000C9452000C94520041
S11300100C9448010C9452000C9452000C94BA01B4
S11300200C9452000C9452000C9452000C949401C1
S11300300C9452000C9452000C946E010C945200D7
S11300400C9452000C9452000C9452000C945200E4
S11300500C9452000C9452000C9452000C945200D4
S11300600C9452000C945200ED0211241FBECFEFE9
S1130070D8E0DEBFCDBF21E0A0E0B1E001C01D9219
S1130080A933B207E1F710E0C5E3D0E004C021973B
S1130090FE010E949709C433D107C9F70E94E00109
S11300A00C949D090C9400006115710531F06B30BE
S11300B071052CF06AE070E002C06BE070E0FC01B6
S11300C061838081882369F19B0121503109C90131
S11300D053E0959587955A95E1F7892B11F05D9A30
S11300E001C05D98C90168E070E00E946F099595B0
S11300F0879595958795892B11F05C9A01C05C983A
S1130100C90164E070E00E946F0995958795892B79
S113011011F05B9A01C05B9820FF02C05A9A0895BF
S11301205A980895CF93DF93EC018AB18C638AB90E
S11301308BB1837C8BB981E08883698170E0CE01C7
S11301400E94540060E070E0CE01DF91CF910C94E6
S113015054009FB7F89484B58F7084BD84B58E7FA6
S113016084BD84B5826084BD85B5877F85BD85B532
S1130170887F85BDEEE6F0E080818A7F8083808180
S1130180826080838EE487BD16BC9FBF089516BC31
S113019085B5856085BD85B58D7F85BD089585B59B
S11301A0887F85BD08959FB7F894E0E8F0E08081EA
S11301B08F70808380818C7F8083E1E8F0E0808190
S11301C08F7E808380818860808380818F73808329
S11301D08081887F8083EFE6F0E080818A7D808360
S11301E0808182608083109289008EE480938800ED
S11301F010928500109284009FBF0895109285008C
S113020010928400E1E8F0E0808185608083808141
S11302108D7F80830895E1E8F0E08081887F80838A
S113022008959FB7F894E0EBF0E080818F708083AD
S113023080818E7F8083808182608083E1EBF0E027
S11302408081877F80838081887F8083E0E7F0E0FE
S113025080818A7F80838081826080838EE4809322
S1130260B300E6EBF0E080818F7D80831092B200D2
S11302709FBF08951092B200E1EBF0E080818760A7
S113028080830895E1EBF0E08081887F8083089586
S11302901F920F920FB60F9211242F933F934F93F7
S11302A05F936F937F938F939F93AF93BF93EF93DA
S11302B0FF9380E091E00E943F04FF91EF91BF9192
S11302C0AF919F918F917F916F915F914F913F91EA
S11302D02F910F900FBE0F901F9018951F920F92A1
S11302E00FB60F9211242F933F934F935F936F9305
S11302F07F938F939F93AF93BF93EF93FF9380E08C
S113030091E00E94EF04FF91EF91BF91AF919F9113
S11303108F917F916F915F914F913F912F910F90AA
S11303200FBE0F901F9018951F920F920FB60F9249
S113033011242F933F934F935F936F937F938F93E6
S11303409F93AF93BF93EF93FF9380E091E00E945C
S11303502605FF91EF91BF91AF919F918F917F916E
S11303606F915F914F913F912F910F900FBE0F901E
S11303701F9018951F920F920FB60F9211242F936E
S11303803F934F935F936F937F938F939F93AF9319
S1130390BF93EF93FF9380E091E00E945D05FF918E
S11303A0EF91BF91AF919F918F917F916F915F91E9
S11303B04F913F912F910F900FBE0F901F90189562
S11303C0CF93DF93CDB7DEB72C970FB6F894DEBF8B
S11303D00FBECDBFCE010B960E94920085E0E82EA1
S11303E0F12C00E010EA25E933E440E050E06CE74A
S11303F072E4CE0101960E941E068EE191E00E94F5
S1130400B706D82E87E291E00E94B706E82E80E373
S113041091E00E94B706F82E63E08EE191E00E941D
S1130420320663E087E291E00E94320663E080E3F3
S113043091E00E9432066AE070E0CE010B960E94C1
S113044054002FEF84E39CE0215080409040E1F77A
S113045000C00000809164008E7F809364008091CE
S11304607C00846480937C0080917A008760809310
S11304707A00809164008E7F8093640080917A007A
S1130480806880937A0080917A00806480937A00F7
S113049080917A0084FFFCCF60E070E0CE010B967F
S11304A00E9454002FEF84E39CE021508040904050
S11304B0E1F700C000006D2D8EE191E00E9432064C
S11304C06E2D87E291E00E9432066F2D80E391E069
S11304D00E943206609178008091790070E0782B58
S11304E080E090E00E94D40720E030E040E85AE346
S11304F00E94DE0820E030E040EA50E40E94DE087A
S113050023E030E040EF50E40E94DE0822E030E0D7
S11305104CEA51E40E94BA060E944B090E949E07CD
S1130520CE010B960E9454002FEF83ED90E32150EF
S113053080409040E1F700C0000060E070E0CE0130
S11305400B960E9454002FEF89E698E121508040D9
S11305509040E1F700C000008AB18F738AB98BB173
S1130560806C8BB980916800826080936800809170
S11305706C008E6080936C007894CE0101960E948A
S113058094056B017C014F9B21C020E030E0A90160
S11305900E9427078823D1F04E9B05C020E030E05D
S11305A040E650E404C020E030E040EE50E4C701EF
S11305B0B6010E94DE0820E030E040E85FE30E94DC
S11305C0BB060E9411080E949E0702C06FEF7FEFD6
S11305D0CE010B960E945400D0CF8F929F92AF927F
S11305E0BF92CF92DF92EF92FF920F931F9301E09D
S11305F010E025E230E040E050E065E270E080E3A6
S113060091E00E94900603E010E025E230E042E031
S113061050E065E270E087E291E00E94900605E018
S113062010E025E230E044E050E065E270E08EE165
S113063091E00E9490061F9283E08F9388E2882EB7
S1130640912C90E3A92E91E0B92E22E0C22ED12C58
S113065038E2E32EF12C07E211E021E030E048E239
S113066050E06EE171E080E091E00E9444030F905D
S11306700F901F910F91FF90EF90DF90CF90BF905C
S1130680AF909F908F9008956F927F928F929F92D8
S1130690AF92BF92CF92DF92EF92FF920F931F938C
S11306A0CF93DF93CDB7DEB73C01DC0114967C9386
S11306B06E93139716961C930E9315971896BC92E7
S11306C0AE92179719964C9319971A965C931A97AA
S11306D01F962C931F9750963C9350971B96EC9221
S11306E01B971C96FC921C975296DC92CE925197C3
S11306F01D968C921D971E969C921E9789899A89A5
S113070054969C938E935397FA01329181E090E032
S1130710AC0101C0440F2A95EAF7242F2095232326
S11307202083F7013291AC0151960C90519702C08D
S1130730440F551F0A94E2F7242F20952323208386
S1130740F401229153960C90539702C0880F991F7D
S11307500A94E2F78095822380831FB7F894199650
S1130760ED91FC911A973297208130E01F960C90FE
S11307701F9702C0359527950A94E2F713968D9139
S11307809C91149720FF07C055961C92559722E020
S11307902C9360E005C021E0F301258B208362E007
S11307A00E943206D3011B96ED91FC911C9732975F
S11307B0208130E051960C90519702C035952795D1
S11307C00A94E2F715968D919C91169720FF08C024
S11307D056961C92569722E011962C9360E005C021
S11307E021E0F301268B218362E00E943206D301CB
S11307F01D96ED91FC911E973297208130E053961F
S11308000C90539702C0359527950A94E2F71796F2
S11308108D919C91189720FF08C057961C9257976A
S113082022E012962C9360E005C021E0F301278BAF
S1130830228362E00E9432060E94A9000E94D30033
S11308400E941101D3015D961C921E925C975B96E7
S11308501C921E925A9759961C921E9258971FBF2B
S1130860DF91CF911F910F91FF90EF90DF90CF9088
S1130870BF90AF909F908F907F906F900895CF938B
S1130880DF93EC01E985FA85329780812F8590E02A
S1130890022E02C0959587950A94E2F780FF03C063
S11308A08D89813069F0808190E002C095958795AB
S11308B02A95E2F780FD0AC08D898823C9F006C015
S11308C01D8A8881823020F18230D9F0EB85FC8545
S11308D032978081298990E0022E02C095958795F0
S11308E00A94E2F780FF17C08E898130A1F420C0FA
S11308F081E08D8B8881813021F0811105C0198EB2
S1130900188E0E94CF00E2CF823001F7198E188E24
S11309100E94C700DBCF808190E002C09595879547
S11309202A95E2F780FD0AC08E898823C9F006C0A3
S11309301E8A8981823020F18230D9F0ED85FE85CE
S1130940329780812B8990E0022E02C0959587957D
S11309500A94E2F780FF17C08F898130A1F420C088
S113096081E08E8B8981813021F0811105C01B8E3D
S11309701A8E0E940B01E2CF823001F71B8E1A8E71
S11309800E94FE00DBCF808190E002C095958795A0
S11309902A95E2F780FD20C08F89882341F01CC08E
S11309A01F8A8A818230A0F08230B1F409C081E0CC
S11309B08F8B8A81813021F0811106C01D8E1C8E9F
S11309C0DF91CF910C944201823031F41D8E1C8E44
S11309D0DF91CF910C943A01DF91CF910895CF9399
S11309E0DF93EC018881813041F4188261E08B81CE
S11309F09C810E943206198E188E888D998D0196DD
S1130A00998F888F888D998D843691053CF08881E3
S1130A10811104C082E0888360E00BC0888D998DC9
S1130A208436910584F08881823069F481E088837A
S1130A3062E08B819C810E943206198E188EDF91B0
S1130A40CF910C94CF00DF91CF910895CF93DF9392
S1130A50EC018981813041F4198261E08D819E81AC
S1130A600E9432061B8E1A8E8A8D9B8D01969B8F57
S1130A708A8F8A8D9B8D843691053CF08981811102
S1130A8004C082E0898360E00BC08A8D9B8D84362C
S1130A90910584F08981823069F481E0898362E080
S1130AA08D819E810E9432061B8E1A8EDF91CF911A
S1130AB00C940B01DF91CF910895CF93DF93EC0158
S1130AC08A81813041F41A8261E08F8198850E9485
S1130AD032061D8E1C8E8C8D9D8D01969D8F8C8F64
S1130AE08C8D9D8D843691053CF08A81811104C0E2
S1130AF082E08A8360E00BC08C8D9D8D84369105E5
S1130B0084F08A81823069F481E08A8362E08F8193
S1130B1098850E9432061D8E1C8EDF91CF910C9415
S1130B204201DF91CF9108954F925F926F927F922D
S1130B308F929F92AF92BF92CF92DF92EF92FF92E9
S1130B400F931F93CF93DF93EC01809164008E7F0A
S1130B508093640010927C0080917C008064809378
S1130B607C0080917A00876080937A0080917A007B
S1130B70806880937A0080917A00806480937A0000
S1130B8080917A0084FFFCCF109178000091790065
S1130B9080917A008F7780937A00809164008160DD
S1130BA08093640068857985072E000C880B990B67
S1130BB00E94D6076B017C01612F70E0702B80E0EE
S1130BC090E00E94D40720E030E040E85AE30E941D
S1130BD0DE08A70196010E94DE08288139814A8136
S1130BE05B810E942C074B015C014C805D806E8010
S1130BF07F80A30192010E94DE08A70196010E9452
S1130C002C07A30192010E94BB06A50194010E9436
S1130C10DE08A70196010E942C07DF91CF911F9156
S1130C200F91FF90EF90DF90CF90BF90AF909F9087
S1130C308F907F906F905F904F900895EF92FF9206
S1130C400F931F93FC014083518362837383048356
S1130C50158326833783F186E0861F910F91FF90D9
S1130C60EF900895FC016087611110C0A081B181EB
S1130C703C9181E090E0AC01048002C0440F551F18
S1130C800A94E2F7242F209523230FC06130D1F476
S1130C90A081B1814C9181E090E09C01048002C06C
S1130CA0220F331F0A94E2F7242B2C93A281B381E1
S1130CB02C91068002C0880F991F0A94E2F7809550
S1130CC082232CC0623081F4A081B1813C9181E007
S1130CD090E0AC01048002C0440F551F0A94E2F76F
S1130CE0242F209523230FC06330C9F4A081B18140
S1130CF04C9181E090E09C01048002C0220F331FDC
S1130D000A94E2F7242B2C93A281B3812C910680C0
S1130D1002C0880F991F0A94E2F7822B8C930895DE
S1130D200F931F93FC0120833183738362830483B5
S1130D30158357834683D9014E9181E090E09C014D
S1130D4001C0220F0A95EAF7242B2C93A281B381C8
S1130D502E91068002C0880F991F0A94E2F7822B15
S1130D608C9360E0CF011F910F910C943206FC012B
S1130D70808508955058BB27AA270E94D2060C9458
S1130D808C080E947E0838F00E94850820F039F40F
S1130D909F3F19F426F40C947B080EF4E095E7FBCE
S1130DA00C944C08E92F0E949D0858F3BA17620767
S1130DB073078407950720F079F4A6F50C94D708F7
S1130DC00EF4E0950B2EBA2FA02D0B01B901900162
S1130DD00C01CA01A0011124FF27591B99F0593FA6
S1130DE050F4503E68F11A16F040A22F232F342FEE
S1130DF04427585FF3CF469537952795A795F0403C
S1130E005395C9F77EF41F16BA0B620B730B840B50
S1130E10BAF09150A1F0FF0FBB1F661F771F881F08
S1130E20C2F70EC0BA0F621F731F841F48F4879560
S1130E3077956795B795F7959E3F08F0B0CF939552
S1130E40880F08F09927EE0F9795879508950E94CB
S1130E50280808F481E008950E9440070C948C0847
S1130E600E94850858F00E947E0840F029F45F3FF4
S1130E7029F00C944C0851110C94D8080C947B085C
S1130E800E949D0868F39923B1F3552391F3951BB0
S1130E90550BBB27AA2762177307840738F09F5F97
S1130EA05F4F220F331F441FAA1FA9F335D00E2E04
S1130EB03AF0E0E832D091505040E695001CCAF771
S1130EC02BD0FE2F29D0660F771F881FBB1F261734
S1130ED037074807AB07B0E809F0BB0B802DBF010B
S1130EE0FF2793585F4F3AF09E3F510578F00C94DA
S1130EF04C080C94D8085F3FE4F3983ED4F38695ED
S1130F0077956795B795F7959F5FC9F7880F911DFA
S1130F109695879597F90895E1E0660F771F881FE6
S1130F20BB1F621773078407BA0720F0621B730B99
S1130F30840BBA0BEE1F88F7E09508950E94A5076D
S1130F406894B1110C94D80808950E94A50888F0FB
S1130F509F5798F0B92F9927B751B0F0E1F0660F79
S1130F60771F881F991F1AF0BA95C9F714C0B130BA
S1130F7091F00E94D708B1E008950C94D708672F28
S1130F80782F8827B85F39F0B93FCCF386957795E9
S1130F906795B395D9F73EF49095809570956195D2
S1130FA07F4F8F4F9F4F0895E89409C097FB3EF4FD
S1130FB090958095709561957F4F8F4F9F4F9923A2
S1130FC0A9F0F92F96E9BB279395F6958795779520
S1130FD06795B795F111F8CFFAF4BB0F11F460FFE0
S1130FE01BC06F5F7F4F8F4F9F4F16C0882311F038
S1130FF096E911C0772321F09EE8872F762F05C04C
S1131000662371F096E8862F70E060E02AF09A95E6
S1131010660F771F881FDAF7880F9695879597F9DB
S113102008950E94BF0890F09F3748F4911116F07C
S11310300C94D80860E070E080E89FEB089526F4F3
S11310401B16611D711D811D0C9452080C946D08B2
S1131050990F0008550FAA0BE0E8FEEF16161706C5
S1131060E807F907C0F012161306E407F50798F02D
S1131070621B730B840B950B39F40A2661F0232B46
S1131080242B252B21F408950A2609F4A140A695C2
S11310908FEF811D811D089597F99F6780E870E0A7
S11310A060E00895882371F4772321F09850872B0A
S11310B0762F07C0662311F499270DC09051862B13
S11310C070E060E02AF09A95660F771F881FDAF7C0
S11310D0880F9695879597F908959F3F31F0915021
S11310E020F4879577956795B795880F911D969508
S11310F0879597F908959FEF80EC089500240A944A
S11311001616170618060906089500240A941216DE
S11311101306140605060895092E0394000C11F411
S1131120882352F0BB0F40F4BF2B11F460FF04C0BE
S11311306F5F7F4F8F4F9F4F089557FD9058440F17
S1131140551F59F05F3F71F04795880F97FB991F22
S113115061F09F3F79F087950895121613061406DF
S1131160551FF2CF4695F1DF08C01616170618066C
S1131170991FF1CF869571056105089408950E9421
S1131180A508A0F0BEE7B91788F4BB279F3860F420
S11311901616B11D672F782F8827985FF7CF86958D
S11311A077956795B11D93959639C8F30895E8949A
S11311B0BB2766277727CB0197F908950E94F1088A
S11311C00C948C080E947E0838F00E94850820F058
S11311D0952311F00C944C080C947B0811240C9466
S11311E0D8080E949D0870F3959FC1F3950F50E0B5
S11311F0551F629FF001729FBB27F00DB11D639FC5
S1131200AA27F00DB11DAA1F649F6627B00DA11D6A
S1131210661F829F2227B00DA11D621F739FB00D10
S1131220A11D621F839FA00D611D221F749F332780
S1131230A00D611D231F849F600D211D822F762F19
S11312406A2F11249F5750409AF0F1F088234AF0F6
S1131250EE0FFF1FBB1F661F771F881F9150504062
S1131260A9F79E3F510580F00C944C080C94D808C3
S11312705F3FE4F3983ED4F3869577956795B795E9
S1131280F795E7959F5FC1F7FE2B880F911D969503
S1131290879597F908950E94A508E8F09E37E8F02D
S11312A09639B8F49E3848F4672F782F8827985FCA
S11312B0F9CF86957795679593959539D0F3B62FA1
S11312C0B1706B0F711D811D20F48795779567951B
S11312D093950C9452080C946D080C94D80897FBC1
S11312E0072E16F4009407D077FD09D00E948309D5
S11312F007FC05D03EF4909581959F4F0895709515
S113130061957F4F0895AA1BBB1B51E107C0AA1F1B
S1131310BB1FA617B70710F0A61BB70B881F991F92
S11313205A95A9F780959095BC01CD010895EE0FCB
S1111330FF1F0590F491E02D0994F894FFCF6F
S9030000FC
