S015000046656E63696E675465737465722E73726563DE
S11300000C9435000C9452000C9452000C94520041
S11300100C946A010C9452000C9452000C94DC0170
S11300200C9452000C9452000C9452000C94B6019F
S11300300C9452000C9452000C9490010C945200B5
S11300400C9452000C9452000C9452000C945200E4
S11300500C9452000C9452000C9452000C945200D4
S11300600C9452000C945200270311241FBECFEFAE
S1130070D8E0DEBFCDBF21E0A0E0B1E001C01D9219
S1130080A933B207E1F710E0C5E3D0E004C021973B
S1130090FE010E943A0AC433D107C9F70E94020242
S11300A00C94400A0C9400006115710509F448C0D1
S11300B06B30710514F06AE070E0FC0161838081AB
S11300C0882309F443C061507109CB019B01359524
S11300D027953595279535952795232B39F004C019
S11300E08AE090E06AE070E05D9A01C05D989C014E
S11300F027703078332334F421503109286F3F6F4F
S11301002F5F3F4F3595279535952795232B11F074
S11301105C9A01C05C9883709078992324F40197C9
S11301208C6F9F6F019695958795892B11F05B9A3B
S113013001C05B9860FF02C05A9A08955A980895C6
S11301402BE0FC01218380818111CACF0895FC0139
S11301506083611105C060E070E00E94540008955E
S1130160FC01618170E00E9454000895CF93DF93F5
S1130170EC018AB18C638AB98BB1837C8BB961E061
S1130180CE010E94A70060E070E0CE010E945400FE
S1130190DF91CF9108959FB7F89484B58F7084BD93
S11301A084B58E7F84BD84B5826084BD85B5877F28
S11301B085BD85B5887F85BDEEE6F0E080818A7FC8
S11301C080838081826080838EE487BD16BC9FBF5C
S11301D0089516BC85B5856085BD85B58D7F85BDC3
S11301E0089585B5887F85BD08959FB7F894E0E8A4
S11301F0F0E080818F70808380818C7F8083E1E850
S1130200F0E080818F7E808380818860808380811C
S11302108F7380838081887F8083EFE6F0E0808124
S11302208A7D8083808182608083109289008EE43D
S11302308093880010928500109284009FBF0895D7
S11302401092850010928400E1E8F0E080818560DE
S1130250808380818D7F80830895E1E8F0E0808150
S1130260887F808308959FB7F894E0EBF0E0808165
S11302708F70808380818E7F808380818260808381
S1130280E1EBF0E08081877F80838081887F8083B9
S1130290E0E7F0E080818A7F8083808182608083D0
S11302A08EE48093B300E6EBF0E080818F7D808361
S11302B01092B2009FBF08951092B200E1EBF0E0FB
S11302C08081876080830895E1EBF0E08081887FFE
S11302D0808308951F920F920FB60F9211242F93CB
S11302E03F934F935F936F937F938F939F93AF93BA
S11302F0BF93EF93FF9380E091E00E949204FF91FB
S1130300EF91BF91AF919F918F917F916F915F9189
S11303104F913F912F910F900FBE0F901F90189502
S11303201F920F920FB60F9211242F933F934F9366
S11303305F936F937F938F939F93AF93BF93EF9349
S1130340FF9380E091E00E948805FF91EF91BF91B7
S1130350AF919F918F917F916F915F914F913F9159
S11303602F910F900FBE0F901F9018951F920F9210
S11303700FB60F9211242F933F934F935F936F9374
S11303807F938F939F93AF93BF93EF93FF9380E0FB
S113039091E00E94C805FF91EF91BF91AF919F91A9
S11303A08F917F916F915F914F913F912F910F901A
S11303B00FBE0F901F9018951F920F920FB60F92B9
S11303C011242F933F934F935F936F937F938F9356
S11303D09F93AF93BF93EF93FF9380E091E00E94CC
S11303E00806FF91EF91BF91AF919F918F917F91FB
S11303F06F915F914F913F912F910F900FBE0F908E
S11304001F901895CF93DF93CDB7DEB72C970FB617
S1130410F894DEBF0FBECDBFCE0101960E94B60098
S11304200F2EF5E0EF2EF12CF02D00E010EA25E977
S113043033E440E050E06CE772E4CE0103960E949E
S1130440CC068EE191E00E948207D82E87E291E0EB
S11304500E948207E82E80E391E00E948207F82E32
S113046063E08EE191E00E94E00663E087E291E0C0
S11304700E94E00663E080E391E00E94E0066AE007
S113048070E0CE0101960E9454002FEF84E39CE0BB
S1130490215080409040E1F700C00000A4E6B0E0A5
S11304A08C918E7F8C93ECE7F0E080818464808370
S11304B0EAE7F0E08081876080838C918E7F8C9363
S11304C0808180688083808180648083808184FFD0
S11304D0FDCF60E070E0CE0101960E9454002FEF42
S11304E084E39CE0215080409040E1F700C000008C
S11304F06D2D8EE191E00E94E0066E2D87E291E081
S11305000E94E0066F2D80E391E00E94E006609176
S113051078008091790070E0782B80E090E00E9470
S11305209F0820E030E040E85AE30E94A90920E057
S113053030E040EA50E40E94A90923E030E040EFB3
S113054050E40E94A90922E030E04CEA51E40E9400
S113055085070E94160A0E946908CE0101960E942E
S113056054002FEF83ED90E3215080409040E1F759
S113057000C0000060E070E0CE0101960E945400CB
S11305802FEF89E698E1215080409040E1F700C0C8
S113059000008AB18F738AB98BB1806C8BB9E8E69D
S11305A0F0E0808182608083ECE6F0E080818E6000
S11305B080837894CE0103960E9448066B017C01E7
S11305C04F9B3EC020E030E0A9010E94F20788233F
S11305D081F14E9B17C020E030E040E650E4C701B3
S11305E0B6010E94A90920E030E040E85FE30E94E0
S11305F086070E94DC080E946908CE0101960E94C9
S11306005400D8CF20E030E040EE50E4C701B601FA
S11306100E94A90920E030E040E85FE30E948607D9
S11306200E94DC080E946908CE0101960E945400D1
S1130630C1CF6FEF7FEFCE0101960E945400BACF75
S11306406FEF7FEFCE0101960E945400B3CF8F92DB
S11306509F92AF92BF92CF92DF92EF92FF920F934D
S11306601F9301E010E025E230E040E050E065E255
S113067070E080E391E00E94580703E010E025E277
S113068030E042E050E065E270E087E291E00E94F1
S1130690580705E010E025E230E044E050E065E270
S11306A070E08EE191E00E9458071F9283E08F93DF
S11306B00F2EF8E28F2E912CF02D0F2EF0E3AF2E9B
S11306C0F1E0BF2EF02D6894CC24C1F8D12C0F2E6C
S11306D0F8E2EF2EF12CF02D07E211E021E030E0FA
S11306E048E250E06EE171E080E091E00E94850311
S11306F00F900F901F910F91FF90EF90DF90CF908C
S1130700BF90AF909F908F9008956F927F928F9239
S11307109F92AF92BF92CF92DF92EF92FF920F938C
S11307201F93CF93DF93CDB7DEB73C01DC01149662
S11307307C936E93139716961C930E9315971896A5
S1130740BC92AE92179719964C9319971A965C938C
S11307501A971F962C931F9750963C9350971B966D
S1130760EC921B971C96FC921C975296DC92CE92AC
S113077051971D968C921D971E969C921E9789895F
S11307809A8954969C938E935397E42FF52F329124
S113079081E090E0AC0102C0440F551F2A95E2F7B6
S11307A0242F209523232083EE2DFF2D3291AC019D
S11307B051960C90519702C0440F551F0A94E2F7CA
S11307C0242F209523232083E82DF92D229153965D
S11307D00C90539702C0880F991F0A94E2F78095F2
S11307E0822380831FB7F8941996ED91FC911A9790
S11307F03297808190E01F960C901F9702C09595C8
S113080087950A94E2F780FF0DC055961C92559780
S113081082E08C9360E013968D919C9114970E94D2
S1130820E00609C081E0F301858B808362E0838167
S113083094810E94E006D3011B96ED91FC911C97D4
S11308403297808190E051960C90519702C0959513
S113085087950A94E2F780FF0FC056961C9256972C
S113086082E011968C93119760E015968D919C917E
S113087016970E94E00609C081E0F301868B81830C
S113088062E0858196810E94E006D3011D96ED9178
S1130890FC911E973297808190E053960C90539769
S11308A002C0959587950A94E2F780FF0FC057968A
S11308B01C92579782E012968C93129760E01796D9
S11308C08D919C9118970E94E00609C081E0F30184
S11308D0878B828362E0878190850E94E0060E9474
S11308E0CB000E94F5000E943301D3015D961C9257
S11308F01E925C975B961C921E925A9759961C9274
S11309001E9258971FBFDF91CF911F910F91FF90B7
S1130910EF90DF90CF90BF90AF909F908F907F909B
S11309206F900895CF93DF93EC0129853A85F901FF
S1130930329780814F8590E0042E02C0959587956B
S11309400A94E2F780FF96C08D89813009F092C045
S11309509DC00E94E9001FC0811103C00E94E900EC
S11309601AC08230C1F40E94F10015C08D89882319
S113097009F492C010C00E94F1000DC0811105C09D
S1130980198E188E0E94F10006C0823021F4198E4F
S1130990188E0E94E9002B853C85F90132978081ED
S11309A0498990E0042E02C0959587950A94E2F750
S11309B080FF79C08E89813009F075C080C00E94A3
S11309C020011FC0811103C00E9420011AC082307F
S11309D0C1F40E942D0115C08E89882309F475C0C5
S11309E010C00E942D010DC0811105C01B8E1A8EEE
S11309F00E942D0106C0823021F41B8E1A8E0E94A3
S1130A0020012D853E85F901329780814B8990E044
S1130A10042E02C0959587950A94E2F780FF5CC086
S1130A208F89813009F058C063C00E945C016DC099
S1130A30811103C00E945C0168C0823009F065C066
S1130A400E94640162C08F89882309F457C05DC085
S1130A500E9464015AC0811105C01D8E1C8E0E9423
S1130A60640153C0823009F050C01D8E1C8E0E9458
S1130A705C014BC0F9013297808190E002C09595EA
S1130A8087954A95E2F780FF71CF85CF1D8A8881CB
S1130A90813009F061CF5DCF81E08D8B8881813019
S1130AA009F06CCF68CFF9013297808190E002C0E1
S1130AB0959587954A95E2F780FF8ECFA2CF1E8A3F
S1130AC08981813009F07ECF7ACF81E08E8B898154
S1130AD0813009F089CF85CFF9013297808190E088
S1130AE002C0959587954A95E2F780FFACCF0DC07B
S1130AF01F8A8A81813009F09BCF97CF81E08F8B49
S1130B008A81813009F0A7CFA3CFDF91CF910895D7
S1130B10CF93DF93EC018881813041F4188261E046
S1130B208B819C810E94E006198E188E888D998D88
S1130B300196998F888F888D998D84369105A4F0BC
S1130B408881882329F010C088818230F1F412C092
S1130B5082E0888360E08B819C810E94E006198E8C
S1130B60188E0E94F10011C0888D998D84369105EC
S1130B705CF70BC081E0888362E08B819C810E94DA
S1130B80E006198E188E0E94F100DF91CF9108952E
S1130B90CF93DF93EC018981813041F4198261E0C4
S1130BA08D819E810E94E0061B8E1A8E8A8D9B8DFC
S1130BB001969B8F8A8F8A8D9B8D84369105A4F034
S1130BC08981882329F010C089818230F1F412C010
S1130BD082E0898360E08D819E810E94E0061B8E05
S1130BE01A8E0E942D0111C08A8D9B8D8436910529
S1130BF05CF70BC081E0898362E08D819E810E9455
S1130C00E0061B8E1A8E0E942D01DF91CF9108956C
S1130C10CF93DF93EC018A81813041F41A8261E041
S1130C208F8198850E94E0061D8E1C8E8C8D9D8D73
S1130C3001969D8F8C8F8C8D9D8D84369105A4F0AB
S1130C408A81882329F010C08A818230F1F412C08D
S1130C5082E08A8360E08F8198850E94E0061D8E81
S1130C601C8E0E94640111C08C8D9D8D843691056B
S1130C705CF70BC081E08A8362E08F8198850E94D3
S1130C80E0061D8E1C8E0E946401DF91CF910895B1
S1130C904F925F926F927F928F929F92AF92BF9288
S1130CA0CF92DF92EF92FF920F931F93CF93DF9334
S1130CB0EC01E4E6F0E080818E7F8083ECE7F0E0F5
S1130CC01082808180648083EAE7F0E0808187601D
S1130CD08083808180688083808180648083808138
S1130CE084FFFDCF1091780000917900EAE7F0E0ED
S1130CF080818F778083E4E6F0E080818160808367
S1130D0068857985072E000C880B990B0E94A10831
S1130D106B017C01612F70E0702B80E090E00E94F9
S1130D209F0820E030E040E85AE30E94A909A701A7
S1130D3096010E94A909288139814A815B810E9418
S1130D40F7074B015C014C805D806E807F80A301BE
S1130D5092010E94A909A70196010E94F707A30125
S1130D6092010E948607A50194010E94A909A70186
S1130D7096010E94F707DF91CF911F910F91FF9089
S1130D80EF90DF90CF90BF90AF909F908F907F9027
S1130D906F905F904F900895EF92FF920F931F937F
S1130DA0FC01408351836283738304831583268308
S1130DB03783F186E0861F910F91FF90EF9008959D
S1130DC0FC01608761111DC0A081B1813C9181E06B
S1130DD090E0AC01048002C0440F551F0A94E2F76E
S1130DE0242F209523232C93A281B3812C91068058
S1130DF002C0880F991F0A94E2F7809582238C938E
S1130E0008956130D9F4A081B1814C9181E090E0E2
S1130E109C01048002C0220F331F0A94E2F7242BA2
S1130E202C93A281B3812C91068002C0880F991F54
S1130E300A94E2F7809582238C9308956230E1F45A
S1130E40A081B1813C9181E090E0AC01048002C0BA
S1130E50440F551F0A94E2F7242F209523232C9343
S1130E60A281B3812C91068002C0880F991F0A9435
S1130E70E2F7822B8C9308956330C9F4A081B18189
S1130E804C9181E090E09C01048002C0220F331F4A
S1130E900A94E2F7242B2C93A281B3812C9106802F
S1130EA002C0880F991F0A94E2F7822B8C9308954D
S1130EB00F931F93FC012083318373836283048324
S1130EC0158357834683A22FB32F4E9181E090E080
S1130ED09C0102C0220F331F0A95E2F7242B2C93A6
S1130EE0A281B3812E91068002C0880F991F0A94B3
S1130EF0E2F7822B8C9360E0CF010E94E0061F9101
S1130F000F910895FC01808508955058BB27AA27A6
S1130F100E949D070C9457090E94490938F00E94C9
S1130F20500920F039F49F3F19F426F40C94460933
S1130F300EF4E095E7FB0C941709E92F0E94680969
S1130F4058F3BA17620773078407950720F079F4FA
S1130F50A6F50C94A2090EF4E0950B2EBA2FA02D41
S1130F600B01B90190010C01CA01A0011124FF2752
S1130F70591B99F0593F50F4503E68F11A16F0404D
S1130F80A22F232F342F4427585FF3CF469537954C
S1130F902795A795F0405395C9F77EF41F16BA0B11
S1130FA0620B730B840BBAF09150A1F0FF0FBB1FBF
S1130FB0661F771F881FC2F70EC0BA0F621F731F08
S1130FC0841F48F4879577956795B795F7959E3F65
S1130FD008F0B0CF9395880F08F09927EE0F9795F6
S1130FE0879508950E94F30808F481E008950E940B
S1130FF00B080C9457090E94500958F00E944909A3
S113100040F029F45F3F29F00C94170951110C9416
S1131010A3090C9446090E94680968F39923B1F363
S1131020552391F3951B550BBB27AA27621773070A
S1131030840738F09F5F5F4F220F331F441FAA1F9E
S1131040A9F335D00E2E3AF0E0E832D0915050405A
S1131050E695001CCAF72BD0FE2F29D0660F771F08
S1131060881FBB1F261737074807AB07B0E809F0EE
S1131070BB0B802DBF01FF2793585F4F3AF09E3F73
S1131080510578F00C9417090C94A3095F3FE4F31D
S1131090983ED4F3869577956795B795F7959F5FB6
S11310A0C9F7880F911D9695879597F90895E1E002
S11310B0660F771F881FBB1F621773078407BA0761
S11310C020F0621B730B840BBA0BEE1F88F7E095BC
S11310D008950E9470086894B1110C94A3090895AE
S11310E00E94700988F09F5798F0B92F9927B7513B
S11310F0B0F0E1F0660F771F881F991F1AF0BA95B8
S1131100C9F714C0B13091F00E94A209B1E008956A
S11311100C94A209672F782F8827B85F39F0B93F5C
S1131120CCF3869577956795B395D9F73EF490956A
S11311308095709561957F4F8F4F9F4F0895E894E8
S113114009C097FB3EF490958095709561957F4F0B
S11311508F4F9F4F9923A9F0F92F96E9BB279395B9
S1131160F695879577956795B795F111F8CFFAF4C9
S1131170BB0F11F460FF1BC06F5F7F4F8F4F9F4FFA
S113118016C0882311F096E911C0772321F09EE858
S1131190872F762F05C0662371F096E8862F70E0BE
S11311A060E02AF09A95660F771F881FDAF7880F98
S11311B09695879597F908950E948A0990F09F372C
S11311C048F4911116F00C94A30960E070E080E8F3
S11311D09FEB089526F41B16611D711D811D0C944F
S11311E01D090C943809990F0008550FAA0BE0E863
S11311F0FEEF16161706E807F907C0F012161306D5
S1131200E407F50798F0621B730B840B950B39F414
S11312100A2661F0232B242B252B21F408950A267A
S113122009F4A140A6958FEF811D811D089597F9BA
S11312309F6780E870E060E00895882371F4772365
S113124021F09850872B762F07C0662311F4992735
S11312500DC09051862B70E060E02AF09A95660FDD
S1131260771F881FDAF7880F9695879597F9089561
S11312709F3F31F0915020F4879577956795B79506
S1131280880F911D9695879597F908959FEF80ECA7
S1131290089500240A9416161706180609060895D8
S11312A000240A9412161306140605060895092E3E
S11312B00394000C11F4882352F0BB0F40F4BF2BAD
S11312C011F460FF04C06F5F7F4F8F4F9F4F0895ED
S11312D057FD9058440F551F59F05F3F71F04795E3
S11312E0880F97FB991F61F09F3F79F087950895C8
S11312F0121613061406551FF2CF4695F1DF08C0E7
S1131300161617061806991FF1CF86957105610503
S1131310089408950E947009A0F0BEE7B91788F4F4
S1131320BB279F3860F41616B11D672F782F8827C6
S1131330985FF7CF869577956795B11D9395963904
S1131340C8F30895E894BB2766277727CB0197F95C
S113135008950E94BC090C9457090E94490938F069
S11313600E94500920F0952311F00C9417090C9455
S1131370460911240C94A3090E94680970F3959FEF
S1131380C1F3950F50E0551F629FF001729FBB2778
S1131390F00DB11D639FAA27F00DB11DAA1F649F14
S11313A06627B00DA11D661F829F2227B00DA11DC7
S11313B0621F739FB00DA11D621F839FA00D611D4D
S11313C0221F749F3327A00D611D231F849F600D6E
S11313D0211D822F762F6A2F11249F5750409AF097
S11313E0F1F088234AF0EE0FFF1FBB1F661F771F23
S11313F0881F91505040A9F79E3F510580F00C94EE
S113140017090C94A3095F3FE4F3983ED4F386953F
S113141077956795B795F795E7959F5FC1F7FE2B8D
S1131420880F911D9695879597F908950E947009E4
S1131430E8F09E37E8F09639B8F49E3848F4672F00
S1131440782F8827985FF9CF869577956795939538
S11314509539D0F3B62FB1706B0F711D811D20F437
S113146087957795679593950C941D090C94380985
S11314700C94A309EE0FFF1F0590F491E02D09943D
S1071480F894FFCF0A
S9030000FC
