:100000000C9435000C9452000C9452000C94520045
:100010000C94B5010C9452000C9452000C942702DD
:100020000C9452000C9452000C9452000C94010257
:100030000C9452000C9452000C94DB010C9452006E
:100040000C9452000C9452000C9452000C945200E8
:100050000C9452000C9452000C9452000C945200D8
:100060000C9452000C945200650311241FBECFEF74
:10007000D8E0DEBFCDBF21E0A0E0B1E001C01D921D
:10008000A933B207E1F710E0C5E3D0E004C021973F
:10009000FE010E94410AC433D107C9F70E944D02F4
:1000A0000C94470A0C9400006115710561F16B30E6
:1000B00071050CF040C0FC0161838081882369F1E7
:1000C0009B0121503109C901959587959595879593
:1000D00095958795892BA9F55D98F901F595E79593
:1000E000F595E79521FB442740F950E0B90161708F
:1000F0007727EF2BC1F45C98452BC1F45B98672BF5
:10010000C1F05A9A089560E070E041E050E02BE0C1
:10011000FC0121838081811101C00895E0E0F0E0BD
:100120005D9AEF2B41F35C9A452B41F35B9A672B69
:1001300041F75A98089561E070E040E050E02AE00D
:10014000E7CFC90168E070E00E94190AFC01F5954B
:10015000E795F595E795C90164E070E00E94190AFA
:10016000AC0155954795B90161707727D9CFFC014E
:100170008AB18C638AB98BB1837C8BB981E080832F
:10018000218130E02115310549F12B303105F4F59D
:1001900021503109C9019595879595958795959534
:1001A0008795892BD1F55D9821FB442740F950E0D4
:1001B000C901817099273595279535952795232B6A
:1001C000A1F05C9A452BA1F45B98892BA1F05A9A77
:1001D0008BE081838081811114C0089580E090E0DC
:1001E00041E050E02BE021835D9A5C98452B61F360
:1001F0005B9A892B61F75A988BE0818380818823F1
:1002000061F35D9A5C985B9A5A98089581E090E05A
:1002100040E050E02AE02183E7CF21FB442740F96A
:1002200050E0C901817099275D9ADFCF9FB7F8949C
:1002300084B58F7084BD84B58E7F84BD84B58260A3
:1002400084BD85B5877F85BD85B5887F85BDEEE694
:10025000F0E080818A7F80838081826080838EE469
:1002600087BD16BC9FBF089516BC85B5856085BD4A
:1002700085B58D7F85BD089585B5887F85BD089539
:100280009FB7F894E0E8F0E080818F7080838081F0
:100290008C7F8083E1E8F0E080818F7E80838081A5
:1002A0008860808380818F7380838081887F808352
:1002B000EFE6F0E080818A7D8083808182608083A8
:1002C000109289008EE4809388001092850010922D
:1002D00084009FBF08951092850010928400E1E889
:1002E000F0E080818560808380818D7F80830895A8
:1002F000E1E8F0E08081887F808308959FB7F894DB
:10030000E0EBF0E080818F70808380818E7F80833E
:10031000808182608083E1EBF0E08081877F808351
:100320008081887F8083E0E7F0E080818A7F80831E
:100330008081826080838EE48093B300E6EBF0E0FE
:1003400080818F7D80831092B2009FBF08951092AC
:10035000B200E1EBF0E08081876080830895E1EBFB
:10036000F0E08081887F808308951F920F920FB6FE
:100370000F9211242F933F934F935F936F937F932B
:100380008F939F93AF93BF93EF93FF9380E091E0A0
:100390000E94C504FF91EF91BF91AF919F918F9102
:1003A0007F916F915F914F913F912F910F900FBE71
:1003B0000F901F9018951F920F920FB60F92112455
:1003C0002F933F934F935F936F937F938F939F935D
:1003D000AF93BF93EF93FF9380E091E00E947A0583
:1003E000FF91EF91BF91AF919F918F917F916F910D
:1003F0005F914F913F912F910F900FBE0F901F90E3
:1004000018951F920F920FB60F9211242F933F93BE
:100410004F935F936F937F938F939F93AF93BF930C
:10042000EF93FF9380E091E00E94B205FF91EF917E
:10043000BF91AF919F918F917F916F915F914F91FC
:100440003F912F910F900FBE0F901F9018951F9204
:100450000F920FB60F9211242F933F934F935F93F8
:100460006F937F938F939F93AF93BF93EF93FF937C
:1004700080E091E00E94EA05FF91EF91BF91AF917A
:100480009F918F917F916F915F914F913F912F91AC
:100490000F900FBE0F901F901895CF93DF93CDB79D
:1004A000DEB72C970FB6F894DEBF0FBECDBFCE01DE
:1004B0000B960E94B70085E0E82EF12C00E010EAD0
:1004C00025E933E440E050E06CE772E4CE010196A8
:1004D0000E94AC068EE191E00E946107D82E87E26F
:1004E00091E00E946107E82E80E391E00E9461079D
:1004F000F82E63E08EE191E00E94000763E087E25E
:1005000091E00E94000763E080E391E00E94000711
:100510006AE070E0CE010B960E9454002FEF84E356
:100520009CE0215080409040E1F700C000008091A5
:1005300064008E7F8093640080917C00846480934B
:100540007C0080917A00876080937A0080916400BB
:100550008E7F8093640080917A00806880937A0017
:1005600080917A00806480937A0080917A0084FF81
:10057000FCCF60E070E0CE010B960E9454002FEF9C
:1005800084E39CE0215080409040E1F700C00000EF
:100590006D2D8EE191E00E9400076E2D87E291E0C3
:1005A0000E9400076F2D80E391E00E940007609198
:1005B00078008091790070E0782B80E090E00E94D4
:1005C0007E0820E030E040E85AE30E94880920E0FD
:1005D00030E040EA50E40E94880923E030E040EF38
:1005E00050E40E94880922E030E04CEA51E40E9485
:1005F00064070E94F5090E944808CE010B960E94EC
:1006000054002FEF83ED90E3215080409040E1F7BC
:1006100000C0000060E070E0CE010B960E94540024
:100620002FEF89E698E1215080409040E1F700C02B
:1006300000008AB18F738AB98BB1806C8BB98091BD
:10064000680082608093680080916C008E60809367
:100650006C007894CE0101960E9422066B017C0109
:100660004F990EC06FEF7FEFCE010B960E945400A2
:10067000CE0101960E9422066B017C014F9BF2CFB6
:1006800020E030E0A9010E94D107882359F34E9B56
:1006900017C020E030E040E650E4C701B6010E94F8
:1006A000880920E030E040E85FE30E9465070E948F
:1006B000BB080E944808CE010B960E945400CACF86
:1006C00020E030E040EE50E4E8CF8F929F92AF926E
:1006D000BF92CF92DF92EF92FF920F931F9301E0B0
:1006E00010E025E230E040E050E065E270E080E3B9
:1006F00091E00E94C00603E010E025E230E042E015
:1007000050E065E270E087E291E00E94C00605E0FB
:1007100010E025E230E044E050E065E270E08EE178
:1007200091E00E94C0061F9283E08F9388E2882E9A
:10073000912C90E3A92E91E0B92E22E0C22ED12C6B
:1007400038E2E32EF12C07E211E021E030E048E24C
:1007500050E06EE171E080E091E00E94BC030F90F8
:100760000F901F910F91FF90EF90DF90CF90BF906F
:10077000AF909F908F9008956F927F928F929F92EB
:10078000AF92BF92CF92DF92EF92FF920F931F939F
:10079000CF93DF93CDB7DEB73C01DC0114967C9399
:1007A0006E93139716961C930E9315971896BC92FA
:1007B000AE92179719964C9319971A965C931A97BD
:1007C0001F962C931F9750963C9350971B96EC9234
:1007D0001B971C96FC921C975296DC92CE925197D6
:1007E0001D968C921D971E969C921E9789899A89B8
:1007F00054969C938E935397FA01329181E090E046
:10080000AC0101C0440F2A95EAF7242F2095232339
:100810002083F7013291AC0151960C90519702C0A0
:10082000440F551F0A94E2F7242F20952323208399
:10083000F401229153960C90539702C0880F991F90
:100840000A94E2F78095822380831FB7F894199663
:10085000ED91FC911A973297808190E01F960C9051
:100860001F9702C0959587950A94E2F780FF6AC0AA
:1008700055961C92559782E08C9360E013968D916B
:100880009C9114970E940007D3011B96ED91FC9157
:100890001C973297808190E051960C90519702C03E
:1008A000959587950A94E2F780FF56C056961C925C
:1008B000569782E011968C93119760E015968D9172
:1008C0009C9116970E940007D3011D96ED91FC9113
:1008D0001E973297808190E053960C90539702C0F8
:1008E000959587950A94E2F780FD40C081E0F30179
:1008F000878B828362E0878190850E9400070E9437
:1009000016010E9440010E947E01D3015D961C9257
:100910001E925C975B961C921E925A9759961C9257
:100920001E9258971FBFDF91CF911F910F91FF909B
:10093000EF90DF90CF90BF90AF909F908F907F907F
:100940006F90089581E0F301858B808362E083815D
:1009500094810E94000798CF81E0F301868B818308
:1009600062E0858196810E940007AECF57961C9267
:10097000579782E012968C93129760E017968D91AC
:100980009C9118970E940007BACFCF93DF93EC0198
:10099000E985FA85329780812F8590E0022E02C08A
:1009A000959587950A94E2F780FF04C08D89813080
:1009B00009F459C0808190E002C0959587952A95E9
:1009C000E2F780FF72C0EB85FC8532978081298930
:1009D00090E0022E02C0959587950A94E2F780FF79
:1009E00004C08E89813009F446C0808190E002C045
:1009F000959587952A95E2F780FF45C0ED85FE85A0
:100A0000329780812B8990E0022E02C095958795C0
:100A10000A94E2F780FF03C08F898130D1F0808192
:100A200090E002C0959587952A95E2F780FD0EC06B
:100A30008F8981110BC081E08F8B8A81813079F0A1
:100A4000882309F454C0823009F441C0DF91CF916A
:100A500008951F8A8A818230E0F18230B9F7DF91F0
:100A6000CF910C94AF011D8A8881823068F1823069
:100A700009F0A9CF34C01E8A8981823098F0823073
:100A800009F0BCCF31C08E898111B8CF81E08E8B47
:100A90008981813049F1882329F1823009F0AECF74
:100AA0001B8E1A8E0E946B01A9CF8D8981118BCF6D
:100AB00081E08D8B8881813091F0882371F08230C4
:100AC00009F081CF198E188E0E9434017CCF1D8EC3
:100AD0001C8EDF91CF910C94A701198E188E0E9465
:100AE0003C0171CF1B8E1A8E0E94780187CF1D8E1C
:100AF0001C8EB5CFCF93DF93EC018881813049F113
:100B0000888D998D0196998F888F888D998D8436DF
:100B1000910584F0888181110DC082E0888360E0B6
:100B20008B819C810E940007198E188EDF91CF91D6
:100B30000C943C01888D998D843691051CF0888138
:100B4000823019F0DF91CF91089581E0888362E0CF
:100B5000E7CF188261E08B819C810E940007198E8B
:100B6000188ECECFCF93DF93EC018981813049F18C
:100B70008A8D9B8D01969B8F8A8F8A8D9B8D843663
:100B8000910584F0898181110DC082E0898360E044
:100B90008D819E810E9400071B8E1A8EDF91CF915E
:100BA0000C9478018A8D9B8D843691051CF0898187
:100BB000823019F0DF91CF91089581E0898362E05E
:100BC000E7CF198261E08D819E810E9400071B8E14
:100BD0001A8ECECFCF93DF93EC018A81813049F119
:100BE0008C8D9D8D01969D8F8C8F8C8D9D8D8436E7
:100BF000910584F08A8181110DC082E08A8360E0D2
:100C00008F8198850E9400071D8E1C8EDF91CF91E9
:100C10000C94AF018C8D9D8D843691051CF08A81DA
:100C2000823019F0DF91CF91089581E08A8362E0EC
:100C3000E7CF1A8261E08F8198850E9400071D8EA0
:100C40001C8ECECF4F925F926F927F928F929F9227
:100C5000AF92BF92CF92DF92EF92FF920F931F93CA
:100C6000CF93DF93EC01809164008E7F80936400CA
:100C700010927C0080917C00806480937C00809145
:100C80007A00876080937A0080917A0080688093F0
:100C90007A0080917A00806480937A0080917A0053
:100CA00084FFFCCF109178000091790080917A0048
:100CB0008F7780937A0080916400816080936400D4
:100CC00068857985072E000C880B990B0E94800897
:100CD0006B017C01612F70E0702B80E090E00E943E
:100CE0007E0820E030E040E85AE30E948809A7012E
:100CF00096010E948809288139814A815B810E947E
:100D0000D6074B015C014C805D806E807F80A30123
:100D100092010E948809A70196010E94D607A301AB
:100D200092010E946507A50194010E948809A7010C
:100D300096010E94D607DF91CF911F910F91FF90EE
:100D4000EF90DF90CF90BF90AF909F908F907F906B
:100D50006F905F904F900895EF92FF920F931F93C3
:100D6000FC0140835183628373830483158326834C
:100D70003783F186E0861F910F91FF90EF900895E1
:100D80000F931F93FC012083318373836283048359
:100D9000158357834683D9014E9181E090E09C01F1
:100DA00001C0220F0A95EAF7242B2C93A281B3816C
:100DB0004E919C01068002C0220F331F0A94E2F775
:100DC000242B2C931086A081B1813C91AC0104802E
:100DD00002C0440F551F0A94E2F7242F20952323C5
:100DE0002C93A281B3812C91068002C0880F991F99
:100DF0000A94E2F7809582238C931F910F910895B6
:100E0000FC016087662341F06130E9F1623009F44A
:100E100048C06330F1F00895A081B1813C9181E038
:100E200090E0AC01048002C0440F551F0A94E2F721
:100E3000242F209523232C93A281B3812C9106800B
:100E400002C0880F991F0A94E2F7809582238C9341
:100E50000895A081B1814C9181E090E09C010480D3
:100E600002C0220F331F0A94E2F7242B2C93A28195
:100E7000B3812C91068002C0880F991F0A94E2F773
:100E8000822B8C930895A081B1814C9181E090E0F8
:100E90009C01048002C0220F331F0A94E2F7242B26
:100EA000CACFA081B1813C9181E090E0AC01048087
:100EB00002C0440F551F0A94E2F7242F20952323E4
:100EC000D5CFFC01808508955058BB27AA270E94E2
:100ED0007C070C9436090E94280938F00E942F09DB
:100EE00020F039F49F3F19F426F40C9425090EF4F0
:100EF000E095E7FB0C94F608E92F0E94470958F3A8
:100F0000BA17620773078407950720F079F4A6F5EE
:100F10000C9481090EF4E0950B2EBA2FA02D0B0135
:100F2000B90190010C01CA01A0011124FF27591B2E
:100F300099F0593F50F4503E68F11A16F040A22F34
:100F4000232F342F4427585FF3CF469537952795A5
:100F5000A795F0405395C9F77EF41F16BA0B620BA4
:100F6000730B840BBAF09150A1F0FF0FBB1F661FEB
:100F7000771F881FC2F70EC0BA0F621F731F841F2E
:100F800048F4879577956795B795F7959E3F08F054
:100F9000B0CF9395880F08F09927EE0F9795879516
:100FA00008950E94D20808F481E008950E94EA079B
:100FB0000C9436090E942F0958F00E94280940F02D
:100FC00029F45F3F29F00C94F60851110C94820922
:100FD0000C9425090E94470968F39923B1F355231E
:100FE00091F3951B550BBB27AA276217730784073C
:100FF00038F09F5F5F4F220F331F441FAA1FA9F3D2
:1010000035D00E2E3AF0E0E832D091505040E695BF
:10101000001CCAF72BD0FE2F29D0660F771F881F20
:10102000BB1F261737074807AB07B0E809F0BB0B13
:10103000802DBF01FF2793585F4F3AF09E3F510527
:1010400078F00C94F6080C9482095F3FE4F3983E24
:10105000D4F3869577956795B795F7959F5FC9F710
:10106000880F911D9695879597F90895E1E0660F91
:10107000771F881FBB1F621773078407BA0720F00A
:10108000621B730B840BBA0BEE1F88F7E095089573
:101090000E944F086894B1110C94820908950E942F
:1010A0004F0988F09F5798F0B92F9927B751B0F0A2
:1010B000E1F0660F771F881F991F1AF0BA95C9F7DC
:1010C00014C0B13091F00E948109B1E008950C94F0
:1010D0008109672F782F8827B85F39F0B93FCCF3A3
:1010E000869577956795B395D9F73EF49095809559
:1010F000709561957F4F8F4F9F4F0895E89409C079
:1011000097FB3EF490958095709561957F4F8F4F3A
:101110009F4F9923A9F0F92F96E9BB279395F69550
:10112000879577956795B795F111F8CFFAF4BB0FCE
:1011300011F460FF1BC06F5F7F4F8F4F9F4F16C032
:10114000882311F096E911C0772321F09EE8872FBC
:10115000762F05C0662371F096E8862F70E060E078
:101160002AF09A95660F771F881FDAF7880F9695F1
:10117000879597F908950E94690990F09F3748F480
:10118000911116F00C94820960E070E080E89FEB0A
:10119000089526F41B16611D711D811D0C94FC0819
:1011A0000C941709990F0008550FAA0BE0E8FEEF01
:1011B00016161706E807F907C0F012161306E4071B
:1011C000F50798F0621B730B840B950B39F40A2614
:1011D00061F0232B242B252B21F408950A2609F4F2
:1011E000A140A6958FEF811D811D089597F99F67F6
:1011F00080E870E060E00895882371F4772321F09F
:101200009850872B762F07C0662311F499270DC0BD
:101210009051862B70E060E02AF09A95660F771F58
:10122000881FDAF7880F9695879597F908959F3F5D
:1012300031F0915020F4879577956795B795880F91
:10124000911D9695879597F908959FEF80EC0895E5
:1012500000240A9416161706180609060895002495
:101260000A9412161306140605060895092E03940F
:10127000000C11F4882352F0BB0F40F4BF2B11F483
:1012800060FF04C06F5F7F4F8F4F9F4F089557FDE2
:101290009058440F551F59F05F3F71F04795880FE4
:1012A00097FB991F61F09F3F79F08795089512167B
:1012B00013061406551FF2CF4695F1DF08C0161627
:1012C00017061806991FF1CF8695710561050894D8
:1012D00008950E944F09A0F0BEE7B91788F4BB2714
:1012E0009F3860F41616B11D672F782F8827985FF6
:1012F000F7CF869577956795B11D93959639C8F385
:101300000895E894BB2766277727CB0197F90895BE
:101310000E949B090C9436090E94280938F00E940B
:101320002F0920F0952311F00C94F6080C94250950
:1013300011240C9482090E94470970F3959FC1F310
:10134000950F50E0551F629FF001729FBB27F00D73
:10135000B11D639FAA27F00DB11DAA1F649F6627C8
:10136000B00DA11D661F829F2227B00DA11D621F17
:10137000739FB00DA11D621F839FA00D611D221FD1
:10138000749F3327A00D611D231F849F600D211DB5
:10139000822F762F6A2F11249F5750409AF0F1F038
:1013A00088234AF0EE0FFF1FBB1F661F771F881FA1
:1013B00091505040A9F79E3F510580F00C94F608DB
:1013C0000C9482095F3FE4F3983ED4F386957795B9
:1013D0006795B795F795E7959F5FC1F7FE2B880F47
:1013E000911D9695879597F908950E944F09E8F009
:1013F0009E37E8F09639B8F49E3848F4672F782F76
:101400008827985FF9CF8695779567959395953955
:10141000D0F3B62FB1706B0F711D811D20F487952D
:101420007795679593950C94FC080C9417090C9488
:10143000820997FB072E16F4009407D077FD09D098
:101440000E942D0A07FC05D03EF4909581959F4F90
:101450000895709561957F4F0895AA1BBB1B51E1BC
:1014600007C0AA1FBB1FA617B70710F0A61BB70B14
:10147000881F991F5A95A9F780959095BC01CD01B9
:101480000895EE0FFF1F0590F491E02D0994F89454
:02149000FFCF8C
:00000001FF
